{
    "_format": "hh-sol-artifact-1",
    "contractName": "Box",
    "sourceName": "contracts/set.sol",
    "abi": [
        {
            "inputs": [],
            "stateMutability": "nonpayable",
            "type": "constructor"
        },
        {
            "anonymous": false,
            "inputs": [
                {
                    "indexed": false,
                    "internalType": "uint256",
                    "name": "newValue",
                    "type": "uint256"
                }
            ],
            "name": "ValueChanged",
            "type": "event"
        },
        {
            "inputs": [],
            "name": "retrieve",
            "outputs": [
                {
                    "internalType": "uint256",
                    "name": "",
                    "type": "uint256"
                }
            ],
            "stateMutability": "view",
            "type": "function"
        },
        {
            "inputs": [],
            "name": "retrieve2",
            "outputs": [
                {
                    "internalType": "uint256",
                    "name": "",
                    "type": "uint256"
                }
            ],
            "stateMutability": "view",
            "type": "function"
        },
        {
            "inputs": [],
            "name": "retrieve3",
            "outputs": [
                {
                    "internalType": "uint256",
                    "name": "",
                    "type": "uint256"
                }
            ],
            "stateMutability": "view",
            "type": "function"
        },
        {
            "inputs": [
                {
                    "internalType": "uint256",
                    "name": "newValue",
                    "type": "uint256"
                }
            ],
            "name": "store",
            "outputs": [],
            "stateMutability": "nonpayable",
            "type": "function"
        },
        {
            "inputs": [
                {
                    "internalType": "uint256",
                    "name": "newValue",
                    "type": "uint256"
                }
            ],
            "name": "store2",
            "outputs": [],
            "stateMutability": "nonpayable",
            "type": "function"
        },
        {
            "inputs": [
                {
                    "internalType": "uint256",
                    "name": "newValue",
                    "type": "uint256"
                }
            ],
            "name": "store3",
            "outputs": [],
            "stateMutability": "nonpayable",
            "type": "function"
        }
    ],
    "bytecode": "0x608060405234801561001057600080fd5b506102bd806100206000396000f3fe608060405234801561001057600080fd5b50600436106100625760003560e01c80632711432d1461006757806327f151f5146100855780632e64cec1146100a15780634b7bec62146100bf5780636057361d146100dd578063ef1f1973146100f9575b600080fd5b61006f610115565b60405161007c919061020e565b60405180910390f35b61009f600480360381019061009a919061025a565b61011f565b005b6100a9610160565b6040516100b6919061020e565b60405180910390f35b6100c7610169565b6040516100d4919061020e565b60405180910390f35b6100f760048036038101906100f2919061025a565b610173565b005b610113600480360381019061010e919061025a565b6101b4565b005b6000600154905090565b806001819055507f93fe6d397c74fdf1402a8b72e47b68512f0510d7b98a4bc4cbdf6ac7108b3c5981604051610155919061020e565b60405180910390a150565b60008054905090565b6000600254905090565b806000819055507f93fe6d397c74fdf1402a8b72e47b68512f0510d7b98a4bc4cbdf6ac7108b3c59816040516101a9919061020e565b60405180910390a150565b806002819055507f93fe6d397c74fdf1402a8b72e47b68512f0510d7b98a4bc4cbdf6ac7108b3c59816040516101ea919061020e565b60405180910390a150565b6000819050919050565b610208816101f5565b82525050565b600060208201905061022360008301846101ff565b92915050565b600080fd5b610237816101f5565b811461024257600080fd5b50565b6000813590506102548161022e565b92915050565b6000602082840312156102705761026f610229565b5b600061027e84828501610245565b9150509291505056fea26469706673582212203e6afe8ceb7f58b1e02dd972316ca445ea2f521cdf77f3f466e0323d511ed74864736f6c63430008110033",
    "linkReferences": {},
    "deployedLinkReferences": {}
}